:020000040000FA
:04000000FEEFFFF020
:10FAD6000000000000003E5B4F5B3E3E6B4F6B3EFE
:10FAE6001C3E7C3E1C183C7E3C181C577D571C1C3B
:10FAF6005E7F5E1C00183C1800FFE7C3E7FF001896
:10FB0600241800FFE7DBE7FF30483A060E2629797E
:10FB16002926407F050507407F05253F5A3CE73CDF
:10FB26005A7F3E1C1C08081C1C3E7F14227F221490
:10FB36005F5F005F5F06097F017F006689956A60E7
:10FB46006060606094A2FFA29408047E04081020FE
:10FB56007E201008082A1C08081C2A08081E1010F7
:10FB660010100C1E0C1E0C30383E3830060E3E0EA1
:10FB760006000000000000005F000000070007000C
:10FB8600147F147F14242A7F2A12231308646236F2
:10FB9600495620500008070300001C22410000417E
:10FBA600221C002A1C7F1C2A08083E0808008070B8
:10FBB60030000808080808000060600020100804EB
:10FBC600023E5149453E00427F400072494949463E
:10FBD6002141494D331814127F1027454545393CBC
:10FBE6004A494931412111090736494949364649A9
:10FBF60049291E00001400000040340000000814CB
:10FC06002241141414141400412214080201590943
:10FC1600063E415D594E7C1211127C7F4949493698
:10FC26003E414141227F4141413E7F494949417F11
:10FC3600090909013E414151737F0808087F0041C7
:10FC46007F41002040413F017F081422417F404010
:10FC560040407F021C027F7F0408107F3E414141E5
:10FC66003E7F090909063E4151215E7F0919294651
:10FC7600264949493203017F01033F4040403F1F67
:10FC86002040201F3F4038403F631408146303049C
:10FC96007804036159494D43007F414141020408FC
:10FCA6001020004141417F040201020440404040CF
:10FCB60040000307080020545478407F2844443805
:10FCC6003844444428384444287F3854545418004F
:10FCD600087E090218A4A49C787F080404780044CE
:10FCE6007D40002040403D007F1028440000417FB9
:10FCF60040007C047804787C080404783844444442
:10FD060038FC1824241818242418FC7C0804040839
:10FD1600485454542404043F44243C4040207C1C52
:10FD26002040201C3C4030403C44281028444C9045
:10FD360090907C4464544C4400083641000000779F
:10FD46000000004136080002010204023C26232678
:10FD56003C1EA1A161123A4040207A3854545559AC
:10FD660021555579412254547842215554784020E2
:10FD7600545579400C1E52721239555555593954FD
:10FD860054545939555454580000457C4100024595
:10FD96007D420001457C407D1211127DF028252808
:10FDA600F07C545545002054547C547C0A097F4904
:10FDB60032494949323A4444443A324A4848303A48
:10FDC6004141217A3A42402078009DA0A07D3D42E3
:10FDD60042423D3D4040403D3C24FF2424487E496C
:10FDE60043662B2FFC2F2BFF0929F620C0887E099E
:10FDF6000320545479410000447D413048484A323A
:10FE0600384040227A007A0A0A727D0D19317D2621
:10FE160029292F28262929292630484D4020380807
:10FE260008080808080808382F10C8ACBA2F102888
:10FE360034FA00007B000008142A142222142A1423
:10FE4600085500550055AA55AA55AAFF55FF55FF56
:10FE5600000000FF00101010FF00141414FF001023
:10FE660010FF00FF1010F010F0141414FC0014140E
:10FE7600F700FF0000FF00FF1414F404FC1414172D
:10FE8600101F10101F101F1414141F00101010F054
:10FE9600000000001F101010101F10101010F0109E
:10FEA600000000FF101010101010101010FF1000AE
:10FEB6000000FF140000FF00FF00001F10170000E5
:10FEC600FC04F414141710171414F404F40000FFBF
:10FED60000F714141414141414F700F71414141758
:10FEE6001410101F101F141414F4141010F010F036
:10FEF60000001F101F0000001F14000000FC14006B
:10FF060000F010F01010FF10FF141414FF1410105E
:10FF1600101F00000000F010FFFFFFFFFFF0F0F0E1
:10FF2600F0F0FFFFFF0000000000FFFF0F0F0F0FB4
:10FF36000F3844443844FC4A4A4A347E02020606D4
:10FF4600027E027E0263554941633844443C0440C4
:10FF56007E201E2006027E020299A5E7A5991C2A8C
:10FF6600492A1C4C7201724C304A4D4D303048784B
:10FF76004830BC625A463D3E494949007E0101016E
:10FF86007E2A2A2A2A2A44445F444440514A44404D
:10FF960040444A51400000FF0103E080FF00000892
:10FFA600086B6B083612362436060F090F0600005A
:10FFB60018180000001010003040FF0101001F015A
:10FFC600011E00191D1712003C3C3C3C00000000BD
:10FFD600000260000A00090180961180FF3A8155EF
:10FFE6000A3601082A04000000F02B0400500140E4
:0AFFF60021800A13800A2980FF0011
:020000040001F9
:100000001F6E200E1F18D8A408EF80F00AEF80F0B2
:100010001CEF80F04450D8A410EF80F012EF80F075
:100020001CEF80F04150D8B418EF80F01AEF80F048
:100030001CEF80F06DEF81F00D0E1F18D8A423EF98
:1000400080F025EF80F029EF80F0000E446E6DEF18
:1000500081F00A0E1F18D8A430EF80F032EF80F044
:1000600038EF80F04250080DF35043266DEF81F0D9
:10007000000E216E1F50050DD70E196EFA0E1A6E66
:10008000F3501926F4501A2221501926000E1A2274
:10009000610064F4F6F4610068F4F7F4000EF86EA1
:1000A00008006100D4F31EF5000E206E1EA05BEF69
:1000B00080F05DEF80F087EF80F04204D8A463EF1A
:1000C00080F065EF80F072EF80F043502024086EDE
:1000D0003FC509F540C50AF5445021249DEC84F044
:1000E000BBEF80F020504202F3504324086E42C51B
:1000F00009F542C50AF53FC50BF540C50CF5215081
:100100004202F35044246EEC81F0BBEF80F03F508C
:100110003D1809E140503E18D8B491EF80F093EFBC
:1001200080F0BBEF80F04204D8A499EF80F09BEF01
:1001300080F0A8EF80F043502024086E3DC509F5FB
:100140003EC50AF5445021249DEC84F0BBEF80F0BD
:1001500020504202F3504324086E42C509F542C5BF
:100160000AF53DC50BF53EC50CF521504202F35092
:1001700044246EEC81F0202AD8901E32070E2064B1
:10018000C4EF80F0C6EF80F056EF80F0212A040E15
:100190002164CDEF80F0CFEF80F03AEF80F03F5058
:1001A0003D1809E140503E18D8B4D9EF80F0DBEF9C
:1001B00080F004EF81F04204D8A4E1EF80F0E3EF97
:1001C00080F0F1EF80F043C508F5080E096E3DC5DB
:1001D0000AF53EC50BF54450050F01EC83F004EF22
:1001E00081F043C508F542C509F54250080D61008C
:1001F000CCF30AF53DC50BF53EC50CF54250050D97
:10020000F35044246EEC81F04250060DF350442626
:100210004250060D6100CCF319F56100D0F31AF5D8
:100220004B501926000E1A224450195C000E1A5821
:10023000D8B01DEF81F01FEF81F021EF81F04BC5A9
:1002400044F54150D8B427EF81F029EF81F06DEFEC
:1002500081F04250050D6100CCF319F56100D0F337
:100260001AF544501926000E1A224B501B6E1C6AB8
:1002700019501B5C1C50800A1D6E1A50800A1D58B4
:10028000D8B045EF81F047EF81F06DEF81F0000EBF
:10029000446E4250080DF35043264250196E1A6ABC
:1002A000D89019361A36D89019361A36D890193689
:1002B0001A364A501B6E1C6A19501B261A501C22F3
:1002C00043501B5C000E1C58D8B069EF81F06BEFF7
:1002D00081F06DEF81F04AC543F51200186E4B5066
:1002E000185CD8B076EF81F078EF81F003EF82F000
:1002F0004A50085CD8B07FEF81F081EF81F003EFC6
:1003000082F00950D8B487EF81F089EF81F003EFD4
:1003100082F00A50D8B48FEF81F091EF81F003EFB3
:1003200082F00C50166E0BC517F54B500D6E0E6A11
:10033000FF0E0F6EFF0E106E095018C511F5126AF0
:100340001126000E12220F501126105012220D50AD
:10035000115C1250800A136E0E50800A1358D8A0F8
:10036000B4EF81F0B6EF81F0B9EF81F018504B5C3B
:10037000096E4A500D6E0E6AFF0E0F6EFF0E106E64
:100380000A5008C511F5126A1126000E12220F50EC
:100390001126105012220D50115C1250800A136E5B
:1003A0000E50800A1358D8A0D8EF81F0DAEF81F010
:1003B000DDEF81F008504A5C0A6E08C503F509C5F7
:1003C00004F50AC505F5185070EC84F009500A02CE
:1003D0006100CCF314F56100D0F315F5F6EF81F070
:1003E00016501CEC85F017501CEC85F01406D8A0B4
:1003F0001506142806E11528D8A401EF82F003EFB2
:1004000082F0F0EF81F0120061000CF4F6F461006C
:1004100010F4F7F4000EF86E08006100D4F306F54E
:10042000034A042A8CEF82F061000CF4F6F46100B8
:1004300010F4F7F4000EF86E0800F55071EC85F03A
:10044000034A042A61000CF4F6F4610010F4F7F496
:10045000000EF86E08006100D4F307F5034A042A81
:1004600007C505F5800E05160550086E096A079E3A
:1004700048EF82F061000CF4F6F4610010F4F7F438
:10048000000EF86E0800F5501CEC85F0034A042AB3
:1004900007060728D8A44FEF82F051EF82F03AEF19
:1004A00082F008500910D8B458EF82F05AEF82F069
:1004B0008CEF82F061000CF4F6F4610010F4F7F4B4
:1004C000000EF86E0800F550086E096A034A042A07
:1004D00008280910D8A46FEF82F071EF82F07FEF47
:1004E00082F0010E096EF40E086E7FEF82F0150E99
:1004F000056EC60EE82EFED7052EFCD700D00806E6
:10050000D8A00906082806E10928D8A48AEF82F0B5
:100510008CEF82F077EF82F006060628D8A493EFDE
:1005200082F095EF82F014EF82F01200026E00016B
:1005300084BF9DEF82F09FEF82F000EF83F00250C6
:10054000050DD70EF324F66EFF0EF420F76EF86A51
:10055000000EF8220800F5C484F00250050D010ECB
:10056000F326000EF422D70EF324F66EFF0EF420CD
:10057000F76EF86A000EF8220800F5C485F0025004
:10058000050D020EF326000EF422D70EF324F66EAC
:10059000FF0EF420F76EF86A000EF8220800F550FE
:1005A0000309866F000E8C6F0250050D030EF326B3
:1005B000000EF422D70EF324F66EFF0EF420F76E31
:1005C000F86A000EF8220800F5C489F00250050D03
:1005D000040EF326000EF422D70EF324F66EFF0E5F
:1005E000F420F76EF86A000EF82208006100D4F3D8
:1005F00001F50146C7500118FD0B0118C76E848F25
:100600001200156E4B50155CD8B009EF83F00BEF5C
:1006100083F05EEF83F04A50085CD8B012EF83F0AD
:1006200014EF83F05EEF83F00950D8B41AEF83F033
:100630001CEF83F05EEF83F00B50136E0AC514F5C8
:100640004A500C6E0D6AFF0E0E6EFF0E0F6E0950B3
:1006500008C510F5116A1026000E11220E50102642
:100660000F5011220C50105C1150800A126E0D5068
:10067000800A1258D8A03FEF83F041EF83F044EF97
:1006800083F008504A5C096E08C503F5010E046E3C
:1006900009C505F5155070EC84F055EF83F0135043
:1006A0001CEC85F014501CEC85F009060928D8A430
:1006B0005CEF83F05EEF83F04FEF83F01200000EEB
:1006C000C26E000EC16E000EBE6E000EBF6E000E3A
:1006D000C06E070ECA6EFD0EC66EF50EC76EC868F8
:1006E000FE0EC96EFE0E0401186FEF0E106FF50EB0
:1006F000086F060E206FFD0E006F000E196F000EC2
:10070000216F000E096F000E016F000E116F000EB9
:100710000201896F000E886F000E876F000E866FD2
:10072000000E0401226F000E026F000E0A6F000E11
:10073000126F000E1A6F03690B6913691B69070EAC
:10074000236F04690C6914691C690F0E246F090E6C
:1007500002016A6F310E0A6F320E0C6F140E6B6F4E
:100760001200056E000E066E0550030B456ED9EFA4
:1007700083F0C00E066E47C549F546C548F5F6EF4D
:1007800083F0A00E066E46C549F547C548F5F6EF5D
:1007900083F0000E066E000E496E000E486EF6EFF6
:1007A00083F0600E066E000E496E000E486EF6EF86
:1007B00083F04550036E046A0450000AD8B4E3EF96
:1007C00083F0F6EF83F00350000AD8B4B9EF83F05A
:1007D000010AD8B4C1EF83F0030AD8B4C9EF83F09B
:1007E000010AD8B4D1EF83F0F6EF83F0360E71EC46
:1007F00085F006501CEC85F0120068EC85F0000EC8
:1008000096EC82F0680E246EE40EE82EFED7242EBD
:10081000FCD700D037EC84F021EE31F111EE25F158
:100820000B0EDBC4E3F4E806FCE2070E1A6EE00EE2
:10083000196E2DEC85F0030EF5EC84F0320E016E8E
:10084000140E78EC85F0000E026E1F0E016E070E7E
:10085000046EE00E036E5FEC85F0250E226E050E31
:10086000236EC0EC84F033EF84F0FEEFFFF0D18014
:10087000090E0B6E1E0E0A6EE40EE82EFED70A2E2F
:10088000FCD70B2EFAD700D0D190090E0B6E1E0E9E
:100890000A6EE40EE82EFED70A2EFCD70B2EFAD7EE
:1008A00000D0D180110E0B6E3C0E0A6ECB0EE82EDE
:1008B000FED70A2EFCD70B2EFAD700F0DC0E036E03
:1008C000FF0E046E04EC82F0000E476E500E466E72
:1008D000F00E4A6EF00E4B6E020EB1EC83F0120079
:1008E000076E49500726485003262A0E71EC85F002
:1008F000000E1CEC85F007501CEC85F0000E1CEC83
:1009000085F007500424066E06041CEC85F02B0EBF
:1009100071EC85F0000E1CEC85F003501CEC85F0AA
:10092000000E1CEC85F003500524066E06041CEC3A
:1009300085F02C0E71EC85F012000B6E4B500B5CA9
:10094000D8B0A5EF84F0A7EF84F0BFEF84F04A5051
:10095000085CD8B0AEEF84F0B0EF84F0BFEF84F065
:1009600008C503F5010E046E010E056E0B5070EC08
:1009700084F0000E1CEC85F009501CEC85F0120090
:10098000CDEF84F0610088F4D9F461008CF4DAF4DE
:10099000DF5000EC80F0224A232A610088F4D9F469
:1009A00061008CF4DAF4DF50D8A4D9EF84F0DBEFE7
:1009B00084F0C2EF84F01200AC0EF66E0A0EF76EF1
:1009C000010EF86E01EE31F110EE12F00900F5C4DF
:1009D000EEF4E550E150FAE101EE43F1090EEE6A62
:1009E000E806FDE10001FDEF83F0036E0350D8A49B
:1009F000FCEF84F0FEEF84F004EF85F0000E026E51
:100A0000010E016E07EF85F003C501F5026A01C50D
:100A100042F51200000E0001606F000E616F000EC3
:100A2000636F000E646F000E656F000E666F000E40
:100A3000676F000E686F1200016E010E0001826F79
:100A4000610004F481F0B1A028EF85F02AEF85F071
:100A500023EF85F0000180511200000E086E4BC597
:100A600009F54AC50AF519C50BF51AC50CF5000EAE
:100A70006EEC81F01200600E0001AD6F000EAF6FE2
:100A8000000EB36F080EB16F000EB06F000EAC6FAA
:100A90001200020E0001846F600E856F000E866FDB
:100AA000010E8C6F0A0E896FC7921200416C612093
:100AB0006D61204B6F746100FFFFFFFF010101C5F5
:100AC0003FF502C540F503C53DF504C53EF51200EE
:100AD0000AEC85F05FEC83F03BEC85F049EC85F0A7
:100AE0001200026ECE9202501CEC85F0CE821200F3
:0C0AF000026E02C544F501C543F512007A
:04FFFC00DCEF84F0C2
:020000040020DA
:10000000FF0FFF0FFF0FFF0FFF0FFF0FFF0FFF0F80
:10001000FF0FFF0FFF0FFF0FFF0FFF0FFF0FFF0F70
:020000040030CA
:0A0000008CFFF7FF9FFFFFFFFFFFDB
:00000001FF
